{"abi":[{"type":"constructor","inputs":[{"name":"_token0","type":"address","internalType":"address"},{"name":"_token1","type":"address","internalType":"address"}],"stateMutability":"nonpayable"},{"type":"function","name":"addLiquidity","inputs":[{"name":"_amount0","type":"uint256","internalType":"uint256"},{"name":"_amount1","type":"uint256","internalType":"uint256"}],"outputs":[],"stateMutability":"nonpayable"},{"type":"function","name":"removeLiquidity","inputs":[{"name":"_amount0","type":"uint256","internalType":"uint256"},{"name":"_amount1","type":"uint256","internalType":"uint256"}],"outputs":[],"stateMutability":"nonpayable"},{"type":"function","name":"reserve0","inputs":[],"outputs":[{"name":"","type":"uint256","internalType":"uint256"}],"stateMutability":"view"},{"type":"function","name":"reserve1","inputs":[],"outputs":[{"name":"","type":"uint256","internalType":"uint256"}],"stateMutability":"view"},{"type":"function","name":"swap","inputs":[{"name":"_tokenIn","type":"address","internalType":"address"},{"name":"_amountIn","type":"uint256","internalType":"uint256"}],"outputs":[],"stateMutability":"nonpayable"},{"type":"function","name":"token0","inputs":[],"outputs":[{"name":"","type":"address","internalType":"address"}],"stateMutability":"view"},{"type":"function","name":"token1","inputs":[],"outputs":[{"name":"","type":"address","internalType":"address"}],"stateMutability":"view"},{"type":"event","name":"AddLiquidity","inputs":[{"name":"user","type":"address","indexed":true,"internalType":"address"},{"name":"amount0","type":"uint256","indexed":false,"internalType":"uint256"},{"name":"amount1","type":"uint256","indexed":false,"internalType":"uint256"}],"anonymous":false},{"type":"event","name":"RemoveLiquidity","inputs":[{"name":"user","type":"address","indexed":true,"internalType":"address"},{"name":"amount0","type":"uint256","indexed":false,"internalType":"uint256"},{"name":"amount1","type":"uint256","indexed":false,"internalType":"uint256"}],"anonymous":false},{"type":"event","name":"Swap","inputs":[{"name":"user","type":"address","indexed":true,"internalType":"address"},{"name":"tokenIn","type":"address","indexed":true,"internalType":"address"},{"name":"amountIn","type":"uint256","indexed":false,"internalType":"uint256"},{"name":"tokenOut","type":"address","indexed":true,"internalType":"address"},{"name":"amountOut","type":"uint256","indexed":false,"internalType":"uint256"}],"anonymous":false},{"type":"error","name":"Amount0GreaterThanReserve0","inputs":[]},{"type":"error","name":"Amount1GreaterThanReserve1","inputs":[]},{"type":"error","name":"InsufficientLiquidityToken0","inputs":[]},{"type":"error","name":"InsufficientLiquidityToken1","inputs":[]},{"type":"error","name":"InsufficientLiquidityTokenOut","inputs":[]},{"type":"error","name":"InvalidAmount","inputs":[]},{"type":"error","name":"InvalidTokenAddress","inputs":[]},{"type":"error","name":"TransferFailed","inputs":[]}],"bytecode":{"object":"0x608060405234801561000f575f5ffd5b5060405161122b38038061122b83398181016040528101906100319190610115565b815f5f6101000a81548173ffffffffffffffffffffffffffffffffffffffff021916908373ffffffffffffffffffffffffffffffffffffffff1602179055508060015f6101000a81548173ffffffffffffffffffffffffffffffffffffffff021916908373ffffffffffffffffffffffffffffffffffffffff1602179055505050610153565b5f5ffd5b5f73ffffffffffffffffffffffffffffffffffffffff82169050919050565b5f6100e4826100bb565b9050919050565b6100f4816100da565b81146100fe575f5ffd5b50565b5f8151905061010f816100eb565b92915050565b5f5f6040838503121561012b5761012a6100b7565b5b5f61013885828601610101565b925050602061014985828601610101565b9150509250929050565b6110cb806101605f395ff3fe608060405234801561000f575f5ffd5b506004361061007b575f3560e01c80639cd441da116100595780639cd441da146100d95780639d7de6b3146100f5578063d004f0f714610111578063d21220a71461012d5761007b565b80630dfe16811461007f578063443cb4bc1461009d5780635a76f25e146100bb575b5f5ffd5b61008761014b565b6040516100949190610d63565b60405180910390f35b6100a561016f565b6040516100b29190610d94565b60405180910390f35b6100c3610175565b6040516100d09190610d94565b60405180910390f35b6100f360048036038101906100ee9190610ddb565b61017b565b005b61010f600480360381019061010a9190610ddb565b610418565b005b61012b60048036038101906101269190610e43565b610729565b005b610135610cff565b6040516101429190610d63565b60405180910390f35b5f5f9054906101000a900473ffffffffffffffffffffffffffffffffffffffff1681565b60025481565b60035481565b5f82036101b4576040517f31dce2f900000000000000000000000000000000000000000000000000000000815260040160405180910390fd5b5f81036101ed576040517f8fed0af200000000000000000000000000000000000000000000000000000000815260040160405180910390fd5b5f5f9054906101000a900473ffffffffffffffffffffffffffffffffffffffff1673ffffffffffffffffffffffffffffffffffffffff166323b872dd3330856040518463ffffffff1660e01b815260040161024a93929190610e81565b6020604051808303815f875af1158015610266573d5f5f3e3d5ffd5b505050506040513d601f19601f8201168201806040525081019061028a9190610eeb565b6102c0576040517f90b8ec1800000000000000000000000000000000000000000000000000000000815260040160405180910390fd5b60015f9054906101000a900473ffffffffffffffffffffffffffffffffffffffff1673ffffffffffffffffffffffffffffffffffffffff166323b872dd3330846040518463ffffffff1660e01b815260040161031e93929190610e81565b6020604051808303815f875af115801561033a573d5f5f3e3d5ffd5b505050506040513d601f19601f8201168201806040525081019061035e9190610eeb565b610394576040517f90b8ec1800000000000000000000000000000000000000000000000000000000815260040160405180910390fd5b8160025f8282546103a59190610f43565b925050819055508060035f8282546103bd9190610f43565b925050819055503373ffffffffffffffffffffffffffffffffffffffff167f06239653922ac7bea6aa2b19dc486b9361821d37712eb796adfd38d81de278ca838360405161040c929190610f76565b60405180910390a25050565b5f8203610451576040517f31dce2f900000000000000000000000000000000000000000000000000000000815260040160405180910390fd5b5f810361048a576040517f8fed0af200000000000000000000000000000000000000000000000000000000815260040160405180910390fd5b6002548211156104c6576040517f4cdec69b00000000000000000000000000000000000000000000000000000000815260040160405180910390fd5b600354811115610502576040517f76a3088b00000000000000000000000000000000000000000000000000000000815260040160405180910390fd5b8160025f8282546105139190610f9d565b925050819055508060035f82825461052b9190610f9d565b925050819055505f5f9054906101000a900473ffffffffffffffffffffffffffffffffffffffff1673ffffffffffffffffffffffffffffffffffffffff1663a9059cbb33846040518363ffffffff1660e01b815260040161058d929190610fd0565b6020604051808303815f875af11580156105a9573d5f5f3e3d5ffd5b505050506040513d601f19601f820116820180604052508101906105cd9190610eeb565b610603576040517f90b8ec1800000000000000000000000000000000000000000000000000000000815260040160405180910390fd5b60015f9054906101000a900473ffffffffffffffffffffffffffffffffffffffff1673ffffffffffffffffffffffffffffffffffffffff1663a9059cbb33836040518363ffffffff1660e01b815260040161065f929190610fd0565b6020604051808303815f875af115801561067b573d5f5f3e3d5ffd5b505050506040513d601f19601f8201168201806040525081019061069f9190610eeb565b6106d5576040517f90b8ec1800000000000000000000000000000000000000000000000000000000815260040160405180910390fd5b3373ffffffffffffffffffffffffffffffffffffffff167f0fbf06c058b90cb038a618f8c2acbf6145f8b3570fd1fa56abb8f0f3f05b36e8838360405161071d929190610f76565b60405180910390a25050565b5f5f9054906101000a900473ffffffffffffffffffffffffffffffffffffffff1673ffffffffffffffffffffffffffffffffffffffff168273ffffffffffffffffffffffffffffffffffffffff1614806107cf575060015f9054906101000a900473ffffffffffffffffffffffffffffffffffffffff1673ffffffffffffffffffffffffffffffffffffffff168273ffffffffffffffffffffffffffffffffffffffff16145b15610806576040517f1eb00b0600000000000000000000000000000000000000000000000000000000815260040160405180910390fd5b5f73ffffffffffffffffffffffffffffffffffffffff168273ffffffffffffffffffffffffffffffffffffffff160361086b576040517f1eb00b0600000000000000000000000000000000000000000000000000000000815260040160405180910390fd5b5f81036108a4576040517f2c5211c600000000000000000000000000000000000000000000000000000000815260040160405180910390fd5b5f5f9054906101000a900473ffffffffffffffffffffffffffffffffffffffff1673ffffffffffffffffffffffffffffffffffffffff168273ffffffffffffffffffffffffffffffffffffffff161461091e5760015f9054906101000a900473ffffffffffffffffffffffffffffffffffffffff16610940565b5f5f9054906101000a900473ffffffffffffffffffffffffffffffffffffffff165b91505f5f5f9054906101000a900473ffffffffffffffffffffffffffffffffffffffff1673ffffffffffffffffffffffffffffffffffffffff168373ffffffffffffffffffffffffffffffffffffffff16146109bc575f5f9054906101000a900473ffffffffffffffffffffffffffffffffffffffff166109df565b60015f9054906101000a900473ffffffffffffffffffffffffffffffffffffffff165b90505f5f5f9054906101000a900473ffffffffffffffffffffffffffffffffffffffff1673ffffffffffffffffffffffffffffffffffffffff168473ffffffffffffffffffffffffffffffffffffffff1614610a3d57600354610a41565b6002545b90505f5f5f9054906101000a900473ffffffffffffffffffffffffffffffffffffffff1673ffffffffffffffffffffffffffffffffffffffff168573ffffffffffffffffffffffffffffffffffffffff1614610a9f57600354610aa3565b6002545b90508473ffffffffffffffffffffffffffffffffffffffff166323b872dd3330876040518463ffffffff1660e01b8152600401610ae293929190610e81565b6020604051808303815f875af1158015610afe573d5f5f3e3d5ffd5b505050506040513d601f19601f82011682018060405250810190610b229190610eeb565b610b58576040517f90b8ec1800000000000000000000000000000000000000000000000000000000815260040160405180910390fd5b5f828286610b669190610ff7565b610b709190611065565b905081811115610bac576040517f0f43133100000000000000000000000000000000000000000000000000000000815260040160405180910390fd5b8373ffffffffffffffffffffffffffffffffffffffff1663a9059cbb33836040518363ffffffff1660e01b8152600401610be7929190610fd0565b6020604051808303815f875af1158015610c03573d5f5f3e3d5ffd5b505050506040513d601f19601f82011682018060405250810190610c279190610eeb565b610c5d576040517f90b8ec1800000000000000000000000000000000000000000000000000000000815260040160405180910390fd5b8483610c699190610f43565b92508082610c779190610f9d565b91508373ffffffffffffffffffffffffffffffffffffffff168673ffffffffffffffffffffffffffffffffffffffff163373ffffffffffffffffffffffffffffffffffffffff167f5380cf97d8f645d3c4896da60c053458dca03a3a31cec642ac80e1ddf0d8d02a8885604051610cef929190610f76565b60405180910390a4505050505050565b60015f9054906101000a900473ffffffffffffffffffffffffffffffffffffffff1681565b5f73ffffffffffffffffffffffffffffffffffffffff82169050919050565b5f610d4d82610d24565b9050919050565b610d5d81610d43565b82525050565b5f602082019050610d765f830184610d54565b92915050565b5f819050919050565b610d8e81610d7c565b82525050565b5f602082019050610da75f830184610d85565b92915050565b5f5ffd5b610dba81610d7c565b8114610dc4575f5ffd5b50565b5f81359050610dd581610db1565b92915050565b5f5f60408385031215610df157610df0610dad565b5b5f610dfe85828601610dc7565b9250506020610e0f85828601610dc7565b9150509250929050565b610e2281610d43565b8114610e2c575f5ffd5b50565b5f81359050610e3d81610e19565b92915050565b5f5f60408385031215610e5957610e58610dad565b5b5f610e6685828601610e2f565b9250506020610e7785828601610dc7565b9150509250929050565b5f606082019050610e945f830186610d54565b610ea16020830185610d54565b610eae6040830184610d85565b949350505050565b5f8115159050919050565b610eca81610eb6565b8114610ed4575f5ffd5b50565b5f81519050610ee581610ec1565b92915050565b5f60208284031215610f0057610eff610dad565b5b5f610f0d84828501610ed7565b91505092915050565b7f4e487b71000000000000000000000000000000000000000000000000000000005f52601160045260245ffd5b5f610f4d82610d7c565b9150610f5883610d7c565b9250828201905080821115610f7057610f6f610f16565b5b92915050565b5f604082019050610f895f830185610d85565b610f966020830184610d85565b9392505050565b5f610fa782610d7c565b9150610fb283610d7c565b9250828203905081811115610fca57610fc9610f16565b5b92915050565b5f604082019050610fe35f830185610d54565b610ff06020830184610d85565b9392505050565b5f61100182610d7c565b915061100c83610d7c565b925082820261101a81610d7c565b9150828204841483151761103157611030610f16565b5b5092915050565b7f4e487b71000000000000000000000000000000000000000000000000000000005f52601260045260245ffd5b5f61106f82610d7c565b915061107a83610d7c565b92508261108a57611089611038565b5b82820490509291505056fea264697066735822122098bbf0cb90ec331875991bbb3fcd5004979918bdf28aa80ceae12e2dd3b67bd564736f6c634300081e0033","linkReferences":{}},"methodIdentifiers":{"addLiquidity(uint256,uint256)":"9cd441da","removeLiquidity(uint256,uint256)":"9d7de6b3","reserve0()":"443cb4bc","reserve1()":"5a76f25e","swap(address,uint256)":"d004f0f7","token0()":"0dfe1681","token1()":"d21220a7"},"id":2}