{"abi":[{"type":"function","name":"allPairs","inputs":[{"name":"","type":"uint256","internalType":"uint256"}],"outputs":[{"name":"","type":"address","internalType":"address"}],"stateMutability":"view"},{"type":"function","name":"createPair","inputs":[{"name":"tokenA","type":"address","internalType":"address"},{"name":"tokenB","type":"address","internalType":"address"}],"outputs":[{"name":"","type":"address","internalType":"address"}],"stateMutability":"nonpayable"},{"type":"function","name":"getAllPairs","inputs":[],"outputs":[{"name":"","type":"address[]","internalType":"address[]"}],"stateMutability":"view"},{"type":"function","name":"getPair","inputs":[{"name":"tokenA","type":"address","internalType":"address"},{"name":"tokenB","type":"address","internalType":"address"}],"outputs":[{"name":"","type":"address","internalType":"address"}],"stateMutability":"view"},{"type":"function","name":"pairs","inputs":[{"name":"","type":"address","internalType":"address"},{"name":"","type":"address","internalType":"address"}],"outputs":[{"name":"","type":"address","internalType":"address"}],"stateMutability":"view"},{"type":"event","name":"PairCreated","inputs":[{"name":"token0","type":"address","indexed":true,"internalType":"address"},{"name":"token1","type":"address","indexed":true,"internalType":"address"},{"name":"pair","type":"address","indexed":false,"internalType":"address"},{"name":"","type":"uint256","indexed":false,"internalType":"uint256"}],"anonymous":false},{"type":"error","name":"PairAlreadyExists","inputs":[]},{"type":"error","name":"TokensCannotBeTheSame","inputs":[]},{"type":"error","name":"TokensCannotBeZeroAddress","inputs":[]}],"bytecode":{"object":"0x6080604052348015600e575f5ffd5b50611c558061001c5f395ff3fe608060405234801561000f575f5ffd5b5060043610610055575f3560e01c80631e3dd18b1461005957806369454b8614610089578063c9c65396146100b9578063e6a43905146100e9578063f800ece914610119575b5f5ffd5b610073600480360381019061006e91906107d5565b610137565b604051610080919061083f565b60405180910390f35b6100a3600480360381019061009e9190610882565b610172565b6040516100b0919061083f565b60405180910390f35b6100d360048036038101906100ce9190610882565b6101ae565b6040516100e0919061083f565b60405180910390f35b61010360048036038101906100fe9190610882565b610666565b604051610110919061083f565b60405180910390f35b610121610706565b60405161012e9190610977565b60405180910390f35b60018181548110610146575f80fd5b905f5260205f20015f915054906101000a900473ffffffffffffffffffffffffffffffffffffffff1681565b5f602052815f5260405f20602052805f5260405f205f915091509054906101000a900473ffffffffffffffffffffffffffffffffffffffff1681565b5f5f73ffffffffffffffffffffffffffffffffffffffff168373ffffffffffffffffffffffffffffffffffffffff16148061021457505f73ffffffffffffffffffffffffffffffffffffffff168273ffffffffffffffffffffffffffffffffffffffff16145b1561024b576040517fe848e35000000000000000000000000000000000000000000000000000000000815260040160405180910390fd5b8173ffffffffffffffffffffffffffffffffffffffff168373ffffffffffffffffffffffffffffffffffffffff16036102b0576040517f49af13db00000000000000000000000000000000000000000000000000000000815260040160405180910390fd5b5f5f8373ffffffffffffffffffffffffffffffffffffffff168573ffffffffffffffffffffffffffffffffffffffff16106102ec5783856102ef565b84845b915091505f73ffffffffffffffffffffffffffffffffffffffff165f5f8473ffffffffffffffffffffffffffffffffffffffff1673ffffffffffffffffffffffffffffffffffffffff1681526020019081526020015f205f8373ffffffffffffffffffffffffffffffffffffffff1673ffffffffffffffffffffffffffffffffffffffff1681526020019081526020015f205f9054906101000a900473ffffffffffffffffffffffffffffffffffffffff1673ffffffffffffffffffffffffffffffffffffffff16146103ee576040517fc9bb25eb00000000000000000000000000000000000000000000000000000000815260040160405180910390fd5b5f82826040516103fd90610791565b610408929190610997565b604051809103905ff080158015610421573d5f5f3e3d5ffd5b509050805f5f8573ffffffffffffffffffffffffffffffffffffffff1673ffffffffffffffffffffffffffffffffffffffff1681526020019081526020015f205f8473ffffffffffffffffffffffffffffffffffffffff1673ffffffffffffffffffffffffffffffffffffffff1681526020019081526020015f205f6101000a81548173ffffffffffffffffffffffffffffffffffffffff021916908373ffffffffffffffffffffffffffffffffffffffff160217905550805f5f8473ffffffffffffffffffffffffffffffffffffffff1673ffffffffffffffffffffffffffffffffffffffff1681526020019081526020015f205f8573ffffffffffffffffffffffffffffffffffffffff1673ffffffffffffffffffffffffffffffffffffffff1681526020019081526020015f205f6101000a81548173ffffffffffffffffffffffffffffffffffffffff021916908373ffffffffffffffffffffffffffffffffffffffff160217905550600181908060018154018082558091505060019003905f5260205f20015f9091909190916101000a81548173ffffffffffffffffffffffffffffffffffffffff021916908373ffffffffffffffffffffffffffffffffffffffff1602179055508173ffffffffffffffffffffffffffffffffffffffff168373ffffffffffffffffffffffffffffffffffffffff167f0d3648bd0f6ba80134a33ba9275ac585d9d315f0ad8355cddefde31afa28d0e9836001805490506040516106529291906109cd565b60405180910390a380935050505092915050565b5f5f5f8473ffffffffffffffffffffffffffffffffffffffff1673ffffffffffffffffffffffffffffffffffffffff1681526020019081526020015f205f8373ffffffffffffffffffffffffffffffffffffffff1673ffffffffffffffffffffffffffffffffffffffff1681526020019081526020015f205f9054906101000a900473ffffffffffffffffffffffffffffffffffffffff16905092915050565b6060600180548060200260200160405190810160405280929190818152602001828054801561078757602002820191905f5260205f20905b815f9054906101000a900473ffffffffffffffffffffffffffffffffffffffff1673ffffffffffffffffffffffffffffffffffffffff168152602001906001019080831161073e575b5050505050905090565b61122b806109f583390190565b5f5ffd5b5f819050919050565b6107b4816107a2565b81146107be575f5ffd5b50565b5f813590506107cf816107ab565b92915050565b5f602082840312156107ea576107e961079e565b5b5f6107f7848285016107c1565b91505092915050565b5f73ffffffffffffffffffffffffffffffffffffffff82169050919050565b5f61082982610800565b9050919050565b6108398161081f565b82525050565b5f6020820190506108525f830184610830565b92915050565b6108618161081f565b811461086b575f5ffd5b50565b5f8135905061087c81610858565b92915050565b5f5f604083850312156108985761089761079e565b5b5f6108a58582860161086e565b92505060206108b68582860161086e565b9150509250929050565b5f81519050919050565b5f82825260208201905092915050565b5f819050602082019050919050565b6108f28161081f565b82525050565b5f61090383836108e9565b60208301905092915050565b5f602082019050919050565b5f610925826108c0565b61092f81856108ca565b935061093a836108da565b805f5b8381101561096a57815161095188826108f8565b975061095c8361090f565b92505060018101905061093d565b5085935050505092915050565b5f6020820190508181035f83015261098f818461091b565b905092915050565b5f6040820190506109aa5f830185610830565b6109b76020830184610830565b9392505050565b6109c7816107a2565b82525050565b5f6040820190506109e05f830185610830565b6109ed60208301846109be565b939250505056fe608060405234801561000f575f5ffd5b5060405161122b38038061122b83398181016040528101906100319190610115565b815f5f6101000a81548173ffffffffffffffffffffffffffffffffffffffff021916908373ffffffffffffffffffffffffffffffffffffffff1602179055508060015f6101000a81548173ffffffffffffffffffffffffffffffffffffffff021916908373ffffffffffffffffffffffffffffffffffffffff1602179055505050610153565b5f5ffd5b5f73ffffffffffffffffffffffffffffffffffffffff82169050919050565b5f6100e4826100bb565b9050919050565b6100f4816100da565b81146100fe575f5ffd5b50565b5f8151905061010f816100eb565b92915050565b5f5f6040838503121561012b5761012a6100b7565b5b5f61013885828601610101565b925050602061014985828601610101565b9150509250929050565b6110cb806101605f395ff3fe608060405234801561000f575f5ffd5b506004361061007b575f3560e01c80639cd441da116100595780639cd441da146100d95780639d7de6b3146100f5578063d004f0f714610111578063d21220a71461012d5761007b565b80630dfe16811461007f578063443cb4bc1461009d5780635a76f25e146100bb575b5f5ffd5b61008761014b565b6040516100949190610d63565b60405180910390f35b6100a561016f565b6040516100b29190610d94565b60405180910390f35b6100c3610175565b6040516100d09190610d94565b60405180910390f35b6100f360048036038101906100ee9190610ddb565b61017b565b005b61010f600480360381019061010a9190610ddb565b610418565b005b61012b60048036038101906101269190610e43565b610729565b005b610135610cff565b6040516101429190610d63565b60405180910390f35b5f5f9054906101000a900473ffffffffffffffffffffffffffffffffffffffff1681565b60025481565b60035481565b5f82036101b4576040517f31dce2f900000000000000000000000000000000000000000000000000000000815260040160405180910390fd5b5f81036101ed576040517f8fed0af200000000000000000000000000000000000000000000000000000000815260040160405180910390fd5b5f5f9054906101000a900473ffffffffffffffffffffffffffffffffffffffff1673ffffffffffffffffffffffffffffffffffffffff166323b872dd3330856040518463ffffffff1660e01b815260040161024a93929190610e81565b6020604051808303815f875af1158015610266573d5f5f3e3d5ffd5b505050506040513d601f19601f8201168201806040525081019061028a9190610eeb565b6102c0576040517f90b8ec1800000000000000000000000000000000000000000000000000000000815260040160405180910390fd5b60015f9054906101000a900473ffffffffffffffffffffffffffffffffffffffff1673ffffffffffffffffffffffffffffffffffffffff166323b872dd3330846040518463ffffffff1660e01b815260040161031e93929190610e81565b6020604051808303815f875af115801561033a573d5f5f3e3d5ffd5b505050506040513d601f19601f8201168201806040525081019061035e9190610eeb565b610394576040517f90b8ec1800000000000000000000000000000000000000000000000000000000815260040160405180910390fd5b8160025f8282546103a59190610f43565b925050819055508060035f8282546103bd9190610f43565b925050819055503373ffffffffffffffffffffffffffffffffffffffff167f06239653922ac7bea6aa2b19dc486b9361821d37712eb796adfd38d81de278ca838360405161040c929190610f76565b60405180910390a25050565b5f8203610451576040517f31dce2f900000000000000000000000000000000000000000000000000000000815260040160405180910390fd5b5f810361048a576040517f8fed0af200000000000000000000000000000000000000000000000000000000815260040160405180910390fd5b6002548211156104c6576040517f4cdec69b00000000000000000000000000000000000000000000000000000000815260040160405180910390fd5b600354811115610502576040517f76a3088b00000000000000000000000000000000000000000000000000000000815260040160405180910390fd5b8160025f8282546105139190610f9d565b925050819055508060035f82825461052b9190610f9d565b925050819055505f5f9054906101000a900473ffffffffffffffffffffffffffffffffffffffff1673ffffffffffffffffffffffffffffffffffffffff1663a9059cbb33846040518363ffffffff1660e01b815260040161058d929190610fd0565b6020604051808303815f875af11580156105a9573d5f5f3e3d5ffd5b505050506040513d601f19601f820116820180604052508101906105cd9190610eeb565b610603576040517f90b8ec1800000000000000000000000000000000000000000000000000000000815260040160405180910390fd5b60015f9054906101000a900473ffffffffffffffffffffffffffffffffffffffff1673ffffffffffffffffffffffffffffffffffffffff1663a9059cbb33836040518363ffffffff1660e01b815260040161065f929190610fd0565b6020604051808303815f875af115801561067b573d5f5f3e3d5ffd5b505050506040513d601f19601f8201168201806040525081019061069f9190610eeb565b6106d5576040517f90b8ec1800000000000000000000000000000000000000000000000000000000815260040160405180910390fd5b3373ffffffffffffffffffffffffffffffffffffffff167f0fbf06c058b90cb038a618f8c2acbf6145f8b3570fd1fa56abb8f0f3f05b36e8838360405161071d929190610f76565b60405180910390a25050565b5f5f9054906101000a900473ffffffffffffffffffffffffffffffffffffffff1673ffffffffffffffffffffffffffffffffffffffff168273ffffffffffffffffffffffffffffffffffffffff1614806107cf575060015f9054906101000a900473ffffffffffffffffffffffffffffffffffffffff1673ffffffffffffffffffffffffffffffffffffffff168273ffffffffffffffffffffffffffffffffffffffff16145b15610806576040517f1eb00b0600000000000000000000000000000000000000000000000000000000815260040160405180910390fd5b5f73ffffffffffffffffffffffffffffffffffffffff168273ffffffffffffffffffffffffffffffffffffffff160361086b576040517f1eb00b0600000000000000000000000000000000000000000000000000000000815260040160405180910390fd5b5f81036108a4576040517f2c5211c600000000000000000000000000000000000000000000000000000000815260040160405180910390fd5b5f5f9054906101000a900473ffffffffffffffffffffffffffffffffffffffff1673ffffffffffffffffffffffffffffffffffffffff168273ffffffffffffffffffffffffffffffffffffffff161461091e5760015f9054906101000a900473ffffffffffffffffffffffffffffffffffffffff16610940565b5f5f9054906101000a900473ffffffffffffffffffffffffffffffffffffffff165b91505f5f5f9054906101000a900473ffffffffffffffffffffffffffffffffffffffff1673ffffffffffffffffffffffffffffffffffffffff168373ffffffffffffffffffffffffffffffffffffffff16146109bc575f5f9054906101000a900473ffffffffffffffffffffffffffffffffffffffff166109df565b60015f9054906101000a900473ffffffffffffffffffffffffffffffffffffffff165b90505f5f5f9054906101000a900473ffffffffffffffffffffffffffffffffffffffff1673ffffffffffffffffffffffffffffffffffffffff168473ffffffffffffffffffffffffffffffffffffffff1614610a3d57600354610a41565b6002545b90505f5f5f9054906101000a900473ffffffffffffffffffffffffffffffffffffffff1673ffffffffffffffffffffffffffffffffffffffff168573ffffffffffffffffffffffffffffffffffffffff1614610a9f57600354610aa3565b6002545b90508473ffffffffffffffffffffffffffffffffffffffff166323b872dd3330876040518463ffffffff1660e01b8152600401610ae293929190610e81565b6020604051808303815f875af1158015610afe573d5f5f3e3d5ffd5b505050506040513d601f19601f82011682018060405250810190610b229190610eeb565b610b58576040517f90b8ec1800000000000000000000000000000000000000000000000000000000815260040160405180910390fd5b5f828286610b669190610ff7565b610b709190611065565b905081811115610bac576040517f0f43133100000000000000000000000000000000000000000000000000000000815260040160405180910390fd5b8373ffffffffffffffffffffffffffffffffffffffff1663a9059cbb33836040518363ffffffff1660e01b8152600401610be7929190610fd0565b6020604051808303815f875af1158015610c03573d5f5f3e3d5ffd5b505050506040513d601f19601f82011682018060405250810190610c279190610eeb565b610c5d576040517f90b8ec1800000000000000000000000000000000000000000000000000000000815260040160405180910390fd5b8483610c699190610f43565b92508082610c779190610f9d565b91508373ffffffffffffffffffffffffffffffffffffffff168673ffffffffffffffffffffffffffffffffffffffff163373ffffffffffffffffffffffffffffffffffffffff167f5380cf97d8f645d3c4896da60c053458dca03a3a31cec642ac80e1ddf0d8d02a8885604051610cef929190610f76565b60405180910390a4505050505050565b60015f9054906101000a900473ffffffffffffffffffffffffffffffffffffffff1681565b5f73ffffffffffffffffffffffffffffffffffffffff82169050919050565b5f610d4d82610d24565b9050919050565b610d5d81610d43565b82525050565b5f602082019050610d765f830184610d54565b92915050565b5f819050919050565b610d8e81610d7c565b82525050565b5f602082019050610da75f830184610d85565b92915050565b5f5ffd5b610dba81610d7c565b8114610dc4575f5ffd5b50565b5f81359050610dd581610db1565b92915050565b5f5f60408385031215610df157610df0610dad565b5b5f610dfe85828601610dc7565b9250506020610e0f85828601610dc7565b9150509250929050565b610e2281610d43565b8114610e2c575f5ffd5b50565b5f81359050610e3d81610e19565b92915050565b5f5f60408385031215610e5957610e58610dad565b5b5f610e6685828601610e2f565b9250506020610e7785828601610dc7565b9150509250929050565b5f606082019050610e945f830186610d54565b610ea16020830185610d54565b610eae6040830184610d85565b949350505050565b5f8115159050919050565b610eca81610eb6565b8114610ed4575f5ffd5b50565b5f81519050610ee581610ec1565b92915050565b5f60208284031215610f0057610eff610dad565b5b5f610f0d84828501610ed7565b91505092915050565b7f4e487b71000000000000000000000000000000000000000000000000000000005f52601160045260245ffd5b5f610f4d82610d7c565b9150610f5883610d7c565b9250828201905080821115610f7057610f6f610f16565b5b92915050565b5f604082019050610f895f830185610d85565b610f966020830184610d85565b9392505050565b5f610fa782610d7c565b9150610fb283610d7c565b9250828203905081811115610fca57610fc9610f16565b5b92915050565b5f604082019050610fe35f830185610d54565b610ff06020830184610d85565b9392505050565b5f61100182610d7c565b915061100c83610d7c565b925082820261101a81610d7c565b9150828204841483151761103157611030610f16565b5b5092915050565b7f4e487b71000000000000000000000000000000000000000000000000000000005f52601260045260245ffd5b5f61106f82610d7c565b915061107a83610d7c565b92508261108a57611089611038565b5b82820490509291505056fea264697066735822122098bbf0cb90ec331875991bbb3fcd5004979918bdf28aa80ceae12e2dd3b67bd564736f6c634300081e0033a264697066735822122045765440aed45a808bde0ffd258c726a5f0479e64de1a341bae8f416b059602964736f6c634300081e0033","linkReferences":{}},"methodIdentifiers":{"allPairs(uint256)":"1e3dd18b","createPair(address,address)":"c9c65396","getAllPairs()":"f800ece9","getPair(address,address)":"e6a43905","pairs(address,address)":"69454b86"},"id":1}